{
  "contractName": "ERC721",
  "abi": [
    {
      "inputs": [],
      "stateMutability": "nonpayable",
      "type": "constructor"
    },
    {
      "anonymous": false,
      "inputs": [
        {
          "indexed": true,
          "internalType": "address",
          "name": "_owner",
          "type": "address"
        },
        {
          "indexed": true,
          "internalType": "address",
          "name": "_approved",
          "type": "address"
        },
        {
          "indexed": true,
          "internalType": "uint256",
          "name": "_tokenId",
          "type": "uint256"
        }
      ],
      "name": "Approval",
      "type": "event"
    },
    {
      "anonymous": false,
      "inputs": [
        {
          "indexed": true,
          "internalType": "address",
          "name": "_from",
          "type": "address"
        },
        {
          "indexed": true,
          "internalType": "address",
          "name": "_to",
          "type": "address"
        },
        {
          "indexed": true,
          "internalType": "uint256",
          "name": "_tokenId",
          "type": "uint256"
        }
      ],
      "name": "Transfer",
      "type": "event"
    },
    {
      "inputs": [
        {
          "internalType": "bytes4",
          "name": "interfaceID",
          "type": "bytes4"
        }
      ],
      "name": "supportsInterface",
      "outputs": [
        {
          "internalType": "bool",
          "name": "",
          "type": "bool"
        }
      ],
      "stateMutability": "view",
      "type": "function"
    },
    {
      "inputs": [
        {
          "internalType": "address",
          "name": "_owner",
          "type": "address"
        }
      ],
      "name": "balanceOf",
      "outputs": [
        {
          "internalType": "uint256",
          "name": "",
          "type": "uint256"
        }
      ],
      "stateMutability": "view",
      "type": "function"
    },
    {
      "inputs": [
        {
          "internalType": "uint256",
          "name": "_tokenId",
          "type": "uint256"
        }
      ],
      "name": "ownerOf",
      "outputs": [
        {
          "internalType": "address",
          "name": "",
          "type": "address"
        }
      ],
      "stateMutability": "view",
      "type": "function"
    },
    {
      "inputs": [
        {
          "internalType": "address",
          "name": "_from",
          "type": "address"
        },
        {
          "internalType": "address",
          "name": "_to",
          "type": "address"
        },
        {
          "internalType": "uint256",
          "name": "_tokenId",
          "type": "uint256"
        }
      ],
      "name": "transferFrom",
      "outputs": [],
      "stateMutability": "nonpayable",
      "type": "function"
    }
  ],
  "bytecode": "0x608060405234801561001057600080fd5b5061003a7f01ffc9a7a5cef8baa21ed3c5c0d7e23accb804b619e9333b597f47a0d84076e2610068565b6100637fa1663723d823b1450139f84d37ca8c329900d51eb5c80f7d512436fcd809d8f9610068565b6100eb565b6001600160e01b031980821690036100c65760405162461bcd60e51b815260206004820152601960248201527f496e76616c696420696e74657266616365207265717565737400000000000000604482015260640160405180910390fd5b6001600160e01b0319166000908152602081905260409020805460ff19166001179055565b61047b806100fa6000396000f3fe608060405234801561001057600080fd5b506004361061004c5760003560e01c806301ffc9a71461005157806323b872dd146100935780636352211e146100a857806370a08231146100d3575b600080fd5b61007e61005f36600461034c565b6001600160e01b03191660009081526020819052604090205460ff1690565b60405190151581526020015b60405180910390f35b6100a66100a1366004610399565b6100f4565b005b6100bb6100b63660046103d5565b610104565b6040516001600160a01b03909116815260200161008a565b6100e66100e13660046103ee565b610169565b60405190815260200161008a565b6100ff8383836101d2565b505050565b6000818152600160205260408120546001600160a01b0316806101635760405162461bcd60e51b81526020600482015260126024820152711d1bdad95b88191bd95cdb9d08195e1a5cdd60721b60448201526064015b60405180910390fd5b92915050565b60006001600160a01b0382166101b65760405162461bcd60e51b81526020600482015260126024820152711d1bdad95b88191bd95cdb9d08195e1a5cdd60721b604482015260640161015a565b506001600160a01b031660009081526002602052604090205490565b6001600160a01b0382166102345760405162461bcd60e51b815260206004820152602360248201527f4552433732313a206d696e74696e6720746f20746865207a65726f206164647260448201526265737360e81b606482015260840161015a565b826001600160a01b031661024782610104565b6001600160a01b0316146102925760405162461bcd60e51b81526020600482015260126024820152712237b73a1037bbb7103a3432903a37b5b2b760711b604482015260640161015a565b6001600160a01b03831660009081526002602052604081208054600192906102bb90849061041f565b9091555050600081815260016020818152604080842080546001600160a01b0319166001600160a01b038816908117909155845260029091528220805491929091610307908490610432565b909155505060405181906001600160a01b0380851691908616907fddf252ad1be2c89b69c2b068fc378daa952ba7f163c4a11628f55a4df523b3ef90600090a4505050565b60006020828403121561035e57600080fd5b81356001600160e01b03198116811461037657600080fd5b9392505050565b80356001600160a01b038116811461039457600080fd5b919050565b6000806000606084860312156103ae57600080fd5b6103b78461037d565b92506103c56020850161037d565b9150604084013590509250925092565b6000602082840312156103e757600080fd5b5035919050565b60006020828403121561040057600080fd5b6103768261037d565b634e487b7160e01b600052601160045260246000fd5b8181038181111561016357610163610409565b808201808211156101635761016361040956fea2646970667358221220142333b7009e63db473f5b2c244f080f33f0909627fc34ed88f9b3588d007ccc64736f6c63430008110033",
  "immutableReferences": {},
  "source": "// SPDX-License-Identifier: MIT\r\npragma solidity ^0.8.0;\r\n\r\nimport './ERC165.sol';\r\nimport './interfaces/IERC721.sol';\r\n\r\n/*\r\n\r\nTo build the minting function, we want -\r\n    a. the nft to point to an address\r\n    b. to keep track of the token IDs\r\n    c. to keep track of token owner addresses to token IDs\r\n    d. to keep track of how many tokens an owner address has\r\n    e. to create an event that emits a transfer log - contract address,\r\n    where its being minted to, the ID \r\n\r\n*/\r\n\r\ncontract ERC721 is ERC165, IERC721 {\r\n\r\n    mapping(uint256 => address) private _tokenOwner;\r\n\r\n    mapping(address => uint256) private _ownedTokensCount;\r\n\r\n    mapping(uint256 => address) private _tokenApprovals;\r\n\r\n    constructor() {\r\n        _registerInterface(bytes4(keccak256('ownerOf(bytes4)')^\r\n        keccak256('tranferFrom(bytes4)')^keccak256('balanceOf(bytes4)')));\r\n    }\r\n\r\n    function balanceOf(address _owner) public override view returns(uint256) {\r\n        require(_owner != address(0), 'token doesnt exist');\r\n        return _ownedTokensCount[_owner];\r\n    }\r\n\r\n    function ownerOf(uint256 _tokenId) public override view returns(address) {\r\n        address owner = _tokenOwner[_tokenId];\r\n        require(owner != address(0), 'token doesnt exist');\r\n        return owner;\r\n    }\r\n\r\n    function _exists(uint256 tokenId) internal view returns(bool) {\r\n        address owner = _tokenOwner[tokenId];\r\n        return owner != address(0);\r\n    }\r\n\r\n    function _mint(address to, uint256 tokenId) internal virtual {\r\n        require(to != address(0), 'ERC721: minting to the zero address');\r\n        require(!_exists(tokenId), 'ERC721: token already minted');\r\n\r\n        _tokenOwner[tokenId] = to;\r\n        _ownedTokensCount[to] += 1;\r\n\r\n        emit Transfer(address(0), to, tokenId);\r\n    }\r\n\r\n    function _transferFrom(address _from, address _to, uint256 _tokenId) internal {\r\n        require(_to != address(0), 'ERC721: minting to the zero address');\r\n        require(ownerOf(_tokenId) == _from, 'Dont own the token');\r\n\r\n        _ownedTokensCount[_from] -= 1;\r\n        _tokenOwner[_tokenId] = _to;\r\n        _ownedTokensCount[_to] += 1;\r\n\r\n        emit Transfer(_from, _to, _tokenId);\r\n    }\r\n\r\n    function transferFrom(address _from, address _to, uint256 _tokenId) override public {\r\n        _transferFrom(_from, _to, _tokenId);\r\n    }\r\n\r\n}",
  "sourcePath": "C:\\Users\\tanve\\OneDrive\\Desktop\\nft-marketplace-starter-kit\\src\\contracts\\ERC721.sol",
  "compiler": {
    "name": "solc",
    "version": "0.8.17+commit.8df45f5f.Emscripten.clang"
  },
  "schemaVersion": "3.4.10",
  "updatedAt": "2022-10-11T22:19:05.947Z",
  "devdoc": {
    "kind": "dev",
    "methods": {
      "supportsInterface(bytes4)": {
        "details": "Interface identification is specified in ERC-165. This function  uses less than 30,000 gas.",
        "params": {
          "interfaceID": "The interface identifier, as specified in ERC-165"
        },
        "returns": {
          "_0": "`true` if the contract implements `interfaceID` and  `interfaceID` is not 0xffffffff, `false` otherwise"
        }
      }
    },
    "version": 1
  },
  "userdoc": {
    "kind": "user",
    "methods": {
      "supportsInterface(bytes4)": {
        "notice": "Query if a contract implements an interface"
      }
    },
    "version": 1
  }
}