{
  "contractName": "ERC721Enumerable",
  "abi": [
    {
      "inputs": [],
      "stateMutability": "nonpayable",
      "type": "constructor"
    },
    {
      "anonymous": false,
      "inputs": [
        {
          "indexed": true,
          "internalType": "address",
          "name": "_owner",
          "type": "address"
        },
        {
          "indexed": true,
          "internalType": "address",
          "name": "_approved",
          "type": "address"
        },
        {
          "indexed": true,
          "internalType": "uint256",
          "name": "_tokenId",
          "type": "uint256"
        }
      ],
      "name": "Approval",
      "type": "event"
    },
    {
      "anonymous": false,
      "inputs": [
        {
          "indexed": true,
          "internalType": "address",
          "name": "_from",
          "type": "address"
        },
        {
          "indexed": true,
          "internalType": "address",
          "name": "_to",
          "type": "address"
        },
        {
          "indexed": true,
          "internalType": "uint256",
          "name": "_tokenId",
          "type": "uint256"
        }
      ],
      "name": "Transfer",
      "type": "event"
    },
    {
      "inputs": [
        {
          "internalType": "address",
          "name": "_owner",
          "type": "address"
        }
      ],
      "name": "balanceOf",
      "outputs": [
        {
          "internalType": "uint256",
          "name": "",
          "type": "uint256"
        }
      ],
      "stateMutability": "view",
      "type": "function"
    },
    {
      "inputs": [
        {
          "internalType": "uint256",
          "name": "_tokenId",
          "type": "uint256"
        }
      ],
      "name": "ownerOf",
      "outputs": [
        {
          "internalType": "address",
          "name": "",
          "type": "address"
        }
      ],
      "stateMutability": "view",
      "type": "function"
    },
    {
      "inputs": [
        {
          "internalType": "bytes4",
          "name": "interfaceID",
          "type": "bytes4"
        }
      ],
      "name": "supportsInterface",
      "outputs": [
        {
          "internalType": "bool",
          "name": "",
          "type": "bool"
        }
      ],
      "stateMutability": "view",
      "type": "function"
    },
    {
      "inputs": [
        {
          "internalType": "address",
          "name": "_from",
          "type": "address"
        },
        {
          "internalType": "address",
          "name": "_to",
          "type": "address"
        },
        {
          "internalType": "uint256",
          "name": "_tokenId",
          "type": "uint256"
        }
      ],
      "name": "transferFrom",
      "outputs": [],
      "stateMutability": "nonpayable",
      "type": "function"
    },
    {
      "inputs": [
        {
          "internalType": "uint256",
          "name": "index",
          "type": "uint256"
        }
      ],
      "name": "tokenByIndex",
      "outputs": [
        {
          "internalType": "uint256",
          "name": "",
          "type": "uint256"
        }
      ],
      "stateMutability": "view",
      "type": "function"
    },
    {
      "inputs": [
        {
          "internalType": "address",
          "name": "owner",
          "type": "address"
        },
        {
          "internalType": "uint256",
          "name": "index",
          "type": "uint256"
        }
      ],
      "name": "tokenOfOwnerByIndex",
      "outputs": [
        {
          "internalType": "uint256",
          "name": "",
          "type": "uint256"
        }
      ],
      "stateMutability": "view",
      "type": "function"
    },
    {
      "inputs": [],
      "name": "totalSupply",
      "outputs": [
        {
          "internalType": "uint256",
          "name": "",
          "type": "uint256"
        }
      ],
      "stateMutability": "view",
      "type": "function"
    }
  ],
  "bytecode": "0x608060405234801561001057600080fd5b5061003a7f01ffc9a7a5cef8baa21ed3c5c0d7e23accb804b619e9333b597f47a0d84076e2610091565b6100637fa1663723d823b1450139f84d37ca8c329900d51eb5c80f7d512436fcd809d8f9610091565b61008c7f2aa3f4710f58b303977da296b62cadae054c8971d883298d8ed6c6c0565c13c1610091565b610114565b6001600160e01b031980821690036100ef5760405162461bcd60e51b815260206004820152601960248201527f496e76616c696420696e74657266616365207265717565737400000000000000604482015260640160405180910390fd5b6001600160e01b0319166000908152602081905260409020805460ff19166001179055565b610625806101236000396000f3fe608060405234801561001057600080fd5b506004361061007d5760003560e01c80632f745c591161005b5780632f745c59146100eb5780634f6ccce7146100fe5780636352211e1461011157806370a082311461013c57600080fd5b806301ffc9a71461008257806318160ddd146100c457806323b872dd146100d6575b600080fd5b6100af6100903660046104b6565b6001600160e01b03191660009081526020819052604090205460ff1690565b60405190151581526020015b60405180910390f35b6004545b6040519081526020016100bb565b6100e96100e4366004610503565b61014f565b005b6100c86100f936600461053f565b61015f565b6100c861010c366004610569565b6101fb565b61012461011f366004610569565b610279565b6040516001600160a01b0390911681526020016100bb565b6100c861014a366004610582565b6102d3565b61015a83838361033c565b505050565b600061016a836102d3565b82106101bd5760405162461bcd60e51b815260206004820152601c60248201527f6f776e657220696e646578206973206f7574206f6620626f756e64730000000060448201526064015b60405180910390fd5b6001600160a01b03831660009081526006602052604090208054839081106101e7576101e761059d565b906000526020600020015490505b92915050565b600061020660045490565b82106102545760405162461bcd60e51b815260206004820152601d60248201527f676c6f62616c20696e646578206973206f7574206f6620626f756e647300000060448201526064016101b4565b600482815481106102675761026761059d565b90600052602060002001549050919050565b6000818152600160205260408120546001600160a01b0316806101f55760405162461bcd60e51b81526020600482015260126024820152711d1bdad95b88191bd95cdb9d08195e1a5cdd60721b60448201526064016101b4565b60006001600160a01b0382166103205760405162461bcd60e51b81526020600482015260126024820152711d1bdad95b88191bd95cdb9d08195e1a5cdd60721b60448201526064016101b4565b506001600160a01b031660009081526002602052604090205490565b6001600160a01b03821661039e5760405162461bcd60e51b815260206004820152602360248201527f4552433732313a206d696e74696e6720746f20746865207a65726f206164647260448201526265737360e81b60648201526084016101b4565b826001600160a01b03166103b182610279565b6001600160a01b0316146103fc5760405162461bcd60e51b81526020600482015260126024820152712237b73a1037bbb7103a3432903a37b5b2b760711b60448201526064016101b4565b6001600160a01b03831660009081526002602052604081208054600192906104259084906105c9565b9091555050600081815260016020818152604080842080546001600160a01b0319166001600160a01b0388169081179091558452600290915282208054919290916104719084906105dc565b909155505060405181906001600160a01b0380851691908616907fddf252ad1be2c89b69c2b068fc378daa952ba7f163c4a11628f55a4df523b3ef90600090a4505050565b6000602082840312156104c857600080fd5b81356001600160e01b0319811681146104e057600080fd5b9392505050565b80356001600160a01b03811681146104fe57600080fd5b919050565b60008060006060848603121561051857600080fd5b610521846104e7565b925061052f602085016104e7565b9150604084013590509250925092565b6000806040838503121561055257600080fd5b61055b836104e7565b946020939093013593505050565b60006020828403121561057b57600080fd5b5035919050565b60006020828403121561059457600080fd5b6104e0826104e7565b634e487b7160e01b600052603260045260246000fd5b634e487b7160e01b600052601160045260246000fd5b818103818111156101f5576101f56105b3565b808201808211156101f5576101f56105b356fea26469706673582212209362142a9e1ee1397a6d0b1c8e10ce7d35d2eba8dab5399aa85c2fef3136b36364736f6c63430008110033",
  "immutableReferences": {},
  "source": "// SPDX-License-Identifier: MIT\r\npragma solidity ^0.8.0;\r\n\r\nimport './ERC721.sol';\r\nimport './interfaces/IERC721Enumerable.sol';\r\n\r\ncontract ERC721Enumerable is IERC721Enumerable, ERC721 {\r\n\r\n    uint256 [] private _allTokens;\r\n\r\n    mapping(uint256 => uint256) private _allTokensIndex;\r\n\r\n    mapping(address => uint256[]) private _ownedTokens;\r\n\r\n    mapping(uint256 => uint256) private _ownedTokensIndex;\r\n\r\n    constructor() {\r\n        _registerInterface(bytes4(keccak256('totalSupply(bytes4)')^\r\n        keccak256('tokenByIndex(bytes4)')^keccak256('tokenOfOwnerByIndex(bytes4)')));\r\n    }\r\n\r\n    function _mint(address to, uint256 tokenId) internal override(ERC721) {\r\n        super._mint(to, tokenId);\r\n\r\n        _addTokensToAllTokensEnumeration(tokenId);\r\n        _addTokensToOwnerEnumeration(to, tokenId);\r\n    }\r\n\r\n    function _addTokensToAllTokensEnumeration(uint256 tokenId) private {\r\n        _allTokensIndex[tokenId] = _allTokens.length;\r\n        _allTokens.push(tokenId);\r\n    }\r\n\r\n    function _addTokensToOwnerEnumeration(address to, uint256 tokenId) private {\r\n        _ownedTokens[to].push(tokenId);\r\n        _ownedTokensIndex[tokenId] = _ownedTokens[to].length;\r\n    }\r\n\r\n    function tokenByIndex(uint index) public override view returns(uint256) {\r\n        require(index < totalSupply(), 'global index is out of bounds');\r\n\r\n        return _allTokens[index];\r\n    }\r\n\r\n    function tokenOfOwnerByIndex(address owner, uint256 index) public override view returns(uint256) {\r\n        require(index < balanceOf(owner), 'owner index is out of bounds');\r\n        \r\n        return _ownedTokens[owner] [index];\r\n    }\r\n\r\n    function totalSupply() public override view returns(uint256) {\r\n        return _allTokens.length;\r\n    }\r\n    \r\n}",
  "sourcePath": "C:\\Users\\tanve\\OneDrive\\Desktop\\nft-marketplace-starter-kit\\src\\contracts\\ERC721Enumerable.sol",
  "compiler": {
    "name": "solc",
    "version": "0.8.17+commit.8df45f5f.Emscripten.clang"
  },
  "schemaVersion": "3.4.10",
  "updatedAt": "2022-10-11T22:19:06.077Z",
  "devdoc": {
    "kind": "dev",
    "methods": {
      "supportsInterface(bytes4)": {
        "details": "Interface identification is specified in ERC-165. This function  uses less than 30,000 gas.",
        "params": {
          "interfaceID": "The interface identifier, as specified in ERC-165"
        },
        "returns": {
          "_0": "`true` if the contract implements `interfaceID` and  `interfaceID` is not 0xffffffff, `false` otherwise"
        }
      }
    },
    "version": 1
  },
  "userdoc": {
    "kind": "user",
    "methods": {
      "supportsInterface(bytes4)": {
        "notice": "Query if a contract implements an interface"
      }
    },
    "version": 1
  }
}